:100000000C942A000C943F000C943F000C943F0089
:100010000C943F000C943F000C943F000C943F0064
:100020000C943F000C943F000C943F000C943F0054
:100030000C943F000C943F000C943F000C943F0044
:100040000C943F000C943F000C943F000C943F0034
:100050000C943F0011241FBECFE5D8E0DEBFCDBF1A
:1000600010E0A0E6B0E0E4E0F2E002C005900D92FE
:10007000AA37B107D9F70E9466000C9400010C94CE
:10008000000088BB9698959A88E893E10197F1F76C
:1000900082B3807C82BB18BA089588BB969A959AE1
:1000A00088E893E10197F1F782B3807C82BB18BAAC
:1000B0000895CF93DF93EC0103C021960E944D0079
:1000C00088811816D4F3DF91CF910895EF92FF92B3
:1000D0000F931F93DF93CF9300D00F92CDB7DEB76E
:1000E0008FEF87BB1ABA81BB04ED10E3C8010197FB
:1000F000F1F787B1806C87B986B1876A86B981E0EC
:100100000E944100C8010197F1F788E30E94410075
:10011000C8010197F1F78FE00E944100C8010197E3
:10012000F1F7369A7E010894E11CF11C04B115B177
:1001300080E690E00E94590080EC0E9441008AE62F
:1001400090E00E94590088EC0E944100C8019695F9
:10015000879596958795B7014AE050E00E94BB00CD
:10016000C7010E94590083E790E00E94590080E88F
:100170000E944100DBCFFB019F01E8944230C4F0B4
:100180004532B4F44A3029F497FB1EF490958195DA
:100190009F4F642F77270E94EC00805D8A330CF01C
:1001A000895D8193CB010097A1F716F45DE251932D
:1001B0001082C9010C94DC00DC01FC01672F7191F5
:1001C0007723E1F7329704C07C916D93708362913D
:1001D000AE17BF07C8F30895AA1BBB1B51E107C0A8
:1001E000AA1FBB1FA617B70710F0A61BB70B881FC7
:1001F000991F5A95A9F780959095BC01CD01089556
:04020000F894FFCFA0
:100204004F4D2047415554414D0054656D7028436E
:0A021400293D0020202020202000BA
:00000001FF
